:03000000021E6875
:0C1E6800787FE4F6D8FD758121021EAFE2
:101EF40044006C461C40004400684576E000440001
:101F04005E43951333440064438893334200620074
:011F140000CC
:10210000E4FF12205FEFB401079000887401F02211
:10211000EF640270381214D0900062E4F0A3EFF084
:10212000900088E0B4010B900062A3E0FF7D0112F3
:10213000239A900062E0FEA3E0FF7C007D0A120675
:0D214000D0900062ECF0A3EDF0FF1224A996
:01214D00226F
:1014D000E4900000F0A3F0A3F0A3F0A3F0A3F0A326
:1014E000F0A31208CE0000000090000B1208CE00FE
:1014F00000000090000F1208CE00000000E49000F1
:1015000002F09000167401F0A37400F0A37405F0CB
:101510007B017A00790312180E900005E0FCA3E02D
:10152000FDE41202C97B007AF0797F784512022728
:10153000E4FBFA79A0784012011E90000B1208C259
:1015400090000BE0F8A3E0F9A3E0FAA3E0FBE4FFCE
:10155000FE7DA07C401200299000071208C2900076
:1015600007E0FCA3E0FDA3E0FEA3E0FF7B007A40E0
:10157000791C78461202279000071208C2900007D3
:10158000E0F8A3E0F9A3E0FAA3E0FBA3E0FCA3E00A
:10159000FDA3E0FEA3E0FF1202279000071208C29D
:1015A00090000FE0F8A3E0F9A3E0FAA3E0FBC0008D
:1015B000C001C002C00390006CE0F8A3E0F9A3E012
:1015C000FAA3E0FB900007E0FCA3E0FDA3E0FEA38C
:1015D000E0FF120227121975900068E0F8A3E0F905
:1015E000A3E0FAA3E0FB120227C004C005C006C0B6
:1015F0000790005EE0F8A3E0F9A3E0FAA3E0FBE4C3
:10160000FFFE7D807C3F120227D003D002D001D0A4
:101610000012002DA804A905AA06AB07E4FFFE7D71
:10162000807C3F1202277B337A53798878C312007B
:101630002DD003D002D001D00012002D90000F1247
:1016400008C2900002E004F0E0C3940A50030215BF
:1016500002E4FBFA7920784190000FE0FCA3E0FD62
:10166000A3E0FEA3E0FF120227120302900001EFA5
:01167000F089
:011671002256
:10218E0012247512222C12237BD2AF12242A122271
:10219E00F6121A6A12235B7FC87E0012233B7F025F
:1021AE0012245C1222581224887FB07E041223D18E
:0E21BE0012247F12210012243E1224AF80F55D
:10243E00900000E0B40308E4F09000887402F022EB
:0A247500758E5190FE917401F02263
:0E244E00EF1F70011E144E6004000080F32288
:1023D1007D407C03ED1D70011C144C70F7EF1F70E4
:0623E100011E144E70EA1B
:0123E70022D3
:10237B0090FF037401F090FF07F090FF02F075B42B
:0F238B00807F507E0012244E90FE9B7449F022FA
:1023E800E4FFFE75B50743B440E5B430E5FB53B4EC
:0523F800DFAEB7AFB637
:0123FD0022BD
:1023FE00E4FFFE75B50343B440E5B430E5FB53B4DA
:05240E00DFAEB7AFB620
:0124130022A6
:10241400E4FFFE75B50243B440E5B430E5FB53B4C4
:05242400DFAEB7AFB60A
:012429002290
:0B180E00900013EBF0A3EAF0A3E9F058
:101819009000191208CE00000000E490001DF0F0BD
:10182900900019E0F8A3E0F9A3E0FAA3E0FB122382
:10183900FEE4FCFDEB2FFFEA3EFEED39FDEC38FC42
:101849009000191208C290001DE004F0E0C394054D
:1018590040CE900019E0FCA3E0FDA3E0FEA3E0FF69
:10186900E47B05FAF9F81207E59000191208C2E4B9
:101879007FA07E0FFDFC900019E0F8A3E0F9A3E03A
:10188900FAA3E0FB12075AE4FB7A10F9F81207E50C
:10189900900013E0FBA3E0FAA3E0F9EE8FF0120742
:1018A9003B7F147E0012244E9000191208CE0000CE
:1018B9000000E490001DF0900019E0F8A3E0F9A3FE
:1018C900E0FAA3E0FB1223E8E4FCFDEB2FFFEA3E7C
:1018D900FEED39FDEC38FC9000191208C290001D8C
:1018E900E004F0E0C3940540CE900019E0FCA3E0C9
:1018F900FDA3E0FEA3E0FFE47B05FAF9F81207E592
:101909009000191208C2E47FA07E0FFDFC90001917
:10191900E0F8A3E0F9A3E0FAA3E0FB12075AE4FB1D
:101929007A10F9F81207E5900016E0FBA3E0FAA394
:08193900E0F9EE8FF002073B1C
:101DD70090007F1208CE00000000E4900083F0F02E
:101DE70090007FE0F8A3E0F9A3E0FAA3E0FB122458
:101DF70014E4FCFDEB2FFFEA3EFEED39FDEC38FC69
:101E070090007F1208C2900083E004F0E0C39405BD
:101E170040CE90007FE0FCA3E0FDA3E0FEA3E0FF3F
:101E2700E47B05FAF9F81207E590007F1208C2E48F
:101E37007FA07E0FFDFC90007FE0F8A3E0F9A3E010
:101E4700FAA3E0FB12075AE4FB7A10F9F81207E548
:101E570090007F1208C290007FA3A3E0FEA3E0FFDB
:011E67002258
:101B80000D0A3D3D3D3D3D3D3D3D3D3D3D3D3D3DE8
:101B90003D3D3D3D3D3D3D3D3D3D3D3D3D3D3D3D75
:101BA0003D3D3D3D3D3D3D3D3D3D0D0A00706F7766
:101BB0006572206F6E20666C617368206761703A91
:101BC0002564202074696D65723A2564200D0A0031
:101BD0003D3D3D3D3D3D3D3D3D3D3D3D3D3D3D3D35
:101BE0003D3D3D3D3D3D3D3D3D3D3D3D3D3D3D3D25
:101BF0003D3D3D3D3D3D3D3D0D0A003D3D3D3D3DB5
:101C00003D3D3D3D3D3D3D3D666972737420696ECD
:101C1000697420646174613D3D3D3D3D3D3D3D3D08
:101C20003D3D200D0A003078253034582020307892
:101C30002530345820203078253034582020307812
:101C400025303458200D0A00666C61736820676186
:101C5000703A2564202074696D65723A2564200D00
:021C60000A0078
:101F1500440072202005014100780142007600004E
:06249100900078E0FF223C
:06249700900078EFF02236
:10231900D310AF01C3C0D075FDF075FC0F8EFA8FD5
:10232900F975FDD275FC2D75FDE175FC1ED0D092B5
:02233900AF22D1
:10228200D310AF01C3C0D08FFB75FDF075FC0FAE4C
:1022920004AF058EFA8FF975FDB475FC4B75FDE13F
:0822A20075FC1ED0D092AF22A2
:0C1FF2007B017A0079707D027F047E3C48
:101FFE00D310AF01C3C0D0900001EEF0A3EFF0A359
:0B200E00EDF0A3EBF0A3EAF0A3E9F073
:10201900E4A3F0C2AFF0900003E0FF900007E0C333
:102029009F502C900004E0FBA3E475F001120725F2
:10203900A9F0FA120678FF900001E475F001120781
:1020490025ADF0FC122282900007E004F080C7D28F
:01205900AFD7
:05205A00D0D092AF227E
:040003008F828E83D7
:03000700E493FF80
:01000A0022D3
:10214E00900001EEF0A3EFF0A3EBF0A3EAF0A3E909
:10215E00F0AF051DEF6028900001E475F001120745
:10216E002585F082F583E493FF900003E0FBA3E462
:10217E0075F001120725A9F0FAEF1206BE80D222E1
:1021CC00E4FDFCED2400FFE4343CFE1200037472C9
:1021DC002DF582E43400F583E0B507030C80037F12
:1021EC0000220DEDB404DCECC3940440037F012207
:0221FC007F0062
:0121FE0022BE
:101A6A00E4900000F090FE927404F01221CCEF7022
:101A7A000790000004F080597BFF7A1B79801209D5
:101A8A00DD7B017A0079707D027F047E3C12214E53
:101A9A007BFF7A1B79AD900070E0FF900004E4F0C0
:101AAA00A3EFF0900071E0FF900006E4F0A3EFF0DE
:101ABA001209DD7BFF7A1B79D01209DD900070E0F4
:101ACA00D394045006A3E0940540069000007401E4
:101ADA00F0900000E06401707A7BFF7A1B79FB12B8
:101AEA0009DD9000707401F0A3F07F007E3C1223A0
:101AFA0019FB7A0079727D04121FFE121FF27B0114
:101B0A007A0079727D047F007E3C12214E7BFF7A37
:101B1A001C7926900072E0FF900004E4F0A3EFF035
:101B2A00900073E0FF900006E4F0A3EFF0900074D9
:101B3A00E0FF900008E4F0A3EFF0900075E0FF905A
:101B4A00000AE4F0A3EFF01209DD7BFF7A1B79D0DB
:101B5A001209DD7BFF7A1C7948900070E0FF900043
:101B6A0004E4F0A3EFF0900071E0FF900006E4F0C7
:061B7A00A3EFF00209DDFB
:1022AA007F047E3C1223197B017A0079727D047FB8
:1022BA0000121FFE121FF27B017A0079707D027FE5
:0622CA00047E3C02214EDF
:101F25005E00050000000000000000000000000049
:101F3500000000000000000000000000000000009C
:011F4500009B
:10222C0090FF1674C1F090FF157460F090FFA074CD
:10223C0026F090FFA114F075CC0675CEFF75CD98E5
:0C224C00759E0275981043A810D2AF22B6
:10000E0053A8EF8F99E59830E1FB5398FD43A81064
:04001E0043981022D1
:0324B30002000E16
:0B21FF00900005EBF0A3EAF0A3E9F06C
:10220A00E4FEEEC39D501A900005E0FBA3E0FAA39A
:10221A00E0F98E82758300120691FF1224B30E80B4
:01222A00E1D2
:01222B002290
:10239A009000007455F0A3EFF0A3EDF0A3740DF0D4
:0F23AA00A3740AF07B017A0079007D050221FF00
:06249D00AE0712000E2242
:030023000220B107
:0D20B100C0E0C083C082C0D075D000C00761
:1020BE00E59830E032AF995398FE900000E014603E
:1020CE001C047023EFB4551F900000F0900000E048
:1020DE0004F09000007401F012000E800AEFB402BA
:0720EE00069000007403F0EE
:0B20F500D007D0D0D082D083D0E032E2
:101F46004100790042007A000041007C0142007D98
:021F5600000089
:1022F60090FF177460F090FF00F090FF01F090FFE0
:102306000374C0F090FF02F090FF11F0C283C28206
:03231600C2A1223F
:101D2000E4900001F0A28133900000F0900079E08F
:101D300014602614604E147003021DC32403600354
:101D4000021DCC900000E06003021DD190007AF0EB
:101D5000A3F090007904F08078900000E0706B9020
:101D6000007BE004F0700690007AE004F0C390007D
:101D70007BE0940390007AE09400403E90007974F8
:101D800002F08036900000E0B40106A37404F080F5
:101D90003B90007BE004F0700690007AE004F0C312
:101DA00090007BE094C890007AE09400400C900092
:101DB000017405F09000797403F07F0A7E0012230D
:101DC000D1800E900000E0B401078000E49000791B
:061DD000F0900001E0FFAD
:011DD60022EA
:10205F00121D20BF04037F012290007CE0601E3020
:10206F00A7032080187F327E001223D1E490007CDA
:10207F00F020A7037F022220800F7F032230A709C1
:10208F0030800690007C7401F0308113D390007E75
:10209F00E0940190007DE094004004E4F0A3F07F11
:0120AF000030
:0120B000220D
:041F580041008B00B9
:1023B9007E0090008BE0FD7C00120945E47B64FA05
:0723C900F9F81207E58FDFB0
:0123D00022EA
:10233B00900000EEF0A3EFF090FF1D74C0F090FF43
:10234B009C7435F090008B74FFF0F5DE75DD9722F1
:0D245C0075BD17EF75F02BA490FEA0F022C7
:0424AF0043BD1022F7
:091F5C00420089000041008801E7
:10242A00E490FE80F0F589758CF5758A9643A802CA
:04243A0043881022A1
:03000B00021F775A
:101F7700C0E0C0F0C083C082C0D075D000C000C030
:101F870001C002C003C004C005C006C007122491E7
:101F9700EF6401703890008AE004F07006900089C1
:101FA700E004F0C390008AE09464900089E0940014
:101FB700401B900088E0FFB40104B2828008EFB4B0
:101FC7000204C283D282900089E4F0A3F0121C625B
:101FD700D007D006D005D004D003D002D001D0005E
:0B1FE700D0D0D082D083D0F0D0E03208
:0D1F6500420086000041008500410084001C
:1022580043D1E890FF62E04406F090FF61E0440853
:10226800F090FF60E04410F090FF6AE044F8F0C29C
:0A22780097C296C295C294C2932249
:09247F0090008674CEF0A3F02257
:1022D000900084E0FF700F90008674CEF0A3F09021
:1022E00000847401F022EFB4010B90008674FFF0BB
:0522F000E4900084F001
:0122F50022C6
:0624A300900087EFF0221B
:0624A900900086EFF02216
:0924880090008674CCF0A3F02250
:101C6200900085E0B408004003021D1A901C75F82C
:101C7200282873021C8D021C9D021CAE021CC1028C
:101C82001CD6021CE6021CF7021D0A53D1EF1216E3
:101C92007212121D9000857401F022C292D291122A
:101CA200167612121D9000857402F022C292C29121
:101CB200D2A312167812121D9000857403F022C26C
:101CC20092C291C2A3D2B412167A12121D9000854A
:101CD2007404F02243D11012167212121D90008564
:101CE2007405F022C292D29112167612121D900041
:101CF200857406F022C292C291D2A31216781212F1
:101D02001D9000857407F022C292C291C2A3D2B480
:0E1D120012167A12121D8000E4900085F02255
:05121D00900086E0FFD7
:10122200EF12091F12510012890112C10212F903B1
:1012320013310413690513A10613D80714120814F5
:101242004C0914C5CC14BACE1483FF000014CF90FD
:101252000085E0FF6003B40404D295C294EF6401F8
:101262006004EFB40504D295D294EF64026004EFF7
:10127200B40604D295C294EF64036078EF64076009
:10128200030214CF021447900085E0FF6003B40408
:1012920004C295C294EF64016004EFB40504D295D0
:1012A200C294EF64026004EFB40604D295C294EFD4
:1012B20064036008EF640760030214CF02140D9008
:1012C2000085E0FF6003B40404D295C294EF640188
:1012D2006004EFB40504D295C294EF64026004EF97
:1012E200B40604C295D294EF64036008EF64076009
:1012F200030214CF021447900085E0FF6003B40498
:1013020004D295C294EF64016004EFB40504D2954F
:10131200C294EF64026004EFB40604D295D294EF53
:1013220064036008EF640760030214CF02147E9026
:101332000085E0FF6003B40404C295C294EF640127
:101342006004EFB40504D295D294EF64026004EF16
:10135200B40604D295D294EF64036008EF64076088
:10136200030214CF02140D900085E0FF6003B40461
:1013720004D295C294EF64016004EFB40504C295EF
:10138200D294EF64026004EFB40604D295D294EFD3
:1013920064036008EF640760030214CF02147E90B6
:1013A2000085E0FF6003B40404D295C294EF6401A7
:1013B2006004EFB40504C295D294EF64026004EFB6
:1013C200B40604D295D294EF64036008EF64076018
:1013D200030214CF806F900085E0FF6003B4040421
:1013E200D295C294EF64016004EFB40504D295C2B1
:1013F20094EF64026004EFB40604D295C294EF64E1
:10140200036008EF640760030214CFC295C29422FE
:10141200900085E0FF6003B40404D295C294EF64A7
:10142200016004EFB40504D295D294EF6402600423
:10143200EFB40604D295D294EF64036008EF640718
:1014420060030214CFD295D29422900085E0FF600F
:1014520003B40404D295C294EF64016004EFB405AE
:1014620004D295D294EF64026004EFB40604D295DC
:10147200D294EF64036005EF64077051D295C29471
:1014820022900085E0FF6003B40404D295C294EF79
:1014920064016004EFB40504C295D294EF64026063
:1014A20004EFB40604C295D294EF64036005EF64BE
:1014B20007701AC295D29422C297C296C295C2945C
:0E14C200C29322D297D296D295D294D2932280
:0D167200D292C291C2A3C2B4900087E0FFE3
:10167F00EF14605D14700302171E14700302175CE1
:10168F001470030217961470030217D02405600319
:10169F0002180D900085E0FF6003B40406C297C2E4
:1016AF0096C293EF64016004EFB40506D297D29609
:1016BF00D293EF64026004EFB40606C297D296C2CB
:1016CF0093EF64036046EF6407600302180D02187E
:1016DF0007900085E0FF6003B40406D297C296C25C
:1016EF0093EF64016004EFB40506D297D296D293BC
:1016FF00EF64026004EFB40606C297C296C293EF7E
:10170F0064036008EF6407600302180D0218079066
:10171F000085E0FF6003B40406C297C296C293EF40
:10172F0064016004EFB40506D297D296D293EF64AA
:10173F00026004EFB40606D297C296C293EF640319
:10174F006008EF6407600302180D02180790008508
:10175F00E0FF6003B40406C297C296D293EF640110
:10176F006004EFB40506D297D296D293EF6402606D
:10177F0004EFB40606C297C296C293EF64036005E6
:10178F00EF640770798071900085E0FF6003B40407
:10179F0006C297D296C293EF64016004EFB40506B8
:1017AF00D297D296D293EF64026004EFB40606C2CA
:1017BF0097C296C293EF64036005EF6407703F8092
:1017CF0037900085E0FF6003B40406C297C296C24B
:1017DF0093EF64016004EFB40506D297D296D293CB
:1017EF00EF64026004EFB40606C297C296D293EF7D
:0F17FF0064036004EFB40706D297D296D2932208
:0C24690000000000000000000000000067
:041F720041004900E1
:10235B00E4900047F0A3F0900043F0A3F0A3F0A3A8
:10236B00F090004204F0900041F090004004F02205
:100DF500784A7C007D017BFF7A2479697E007F0C2F
:100E05001206529000561208CE0000000090005ABB
:100E15001208CE00000000900047E0FEA3E0FF901E
:100E25000045E0FCA3E0FDD39FEC9E5003021215A4
:100E3500ED9FFFEC9EFED3EF9464EE940040030219
:100E4500120BE4FCFD90004A1208C2E490003EF04B
:100E5500900035E0FCA3E0FDA3E0FEA3E0FFA312B4
:100E650008C2900031E0FCA3E0FDA3E0FEA3E0FF93
:100E7500A31208C290004AE0FCA3E0FDA3E0FEA394
:100E8500E0FF9000311208C2900035E0FCA3E0FDC0
:100E9500A3E0FEA3E0FF900031E0F8A3E0F9A3E0B2
:100EA500FAA3E0FBD31208854033900035E0F8A3A0
:100EB500E0F9A3E0FAA3E0FB900031E0FCA3E0FD3C
:100EC500A3E0FEA3E09BFFEE9AFEED99FDEC98FCF6
:100ED50090004A1208C2E490003DF0803190003144
:100EE500E0F8A3E0F9A3E0FAA3E0FBA3E0FCA3E0AC
:100EF500FDA3E0FEA3E0C39BFFEE9AFEED99FDEC9A
:100F050098FC90004A1208C290003D7401F0E47FFD
:100F150002FEFDFC900035E0F8A3E0F9A3E0FAA39A
:100F2500E0FB12075A9000521208C2900039E0FC0B
:100F3500A3E0FDA3E0FEA3E0FF900031E0F8A3E00D
:100F4500F9A3E0FAA3E02FFFEA3EFEE93DFDE83C08
:100F5500FC900052E0F8A3E0F9A3E0FAA3E0FBC39C
:100F6500120885504B900039E0FCA3E0FDA3E0FE9C
:100F7500A3E0FF900031E0F8A3E0F9A3E0FAA3E0D5
:100F85002FFFEA3EFEE93DFDE83CFC900052E0F80B
:100F9500A3E0F9A3E0FAC3EF9BFFEE9AFEED99FDFE
:100FA500EC98FC9000521208C2E490003FF0805D7E
:100FB500900052E0FCA3E0FDA3E0FEA3E0FFC00427
:100FC500C005C006C007900039E0FCA3E0FDA3E022
:100FD500FEA3E0FF900031E0F8A3E0F9A3E0FAA357
:100FE500E02FFBEA3EFAE93DF9E83CF8D007D006E8
:100FF500D005D004C3EF9BFFEE9AFEED99FDEC986A
:10100500FC9000521208C290003F7401F09000401D
:10101500E0FFE4FCFDFE90004AE0F8A3E0F9A3E060
:10102500FAA3E0FB12075A90004A1208C290004149
:10103500E0FFE4FCFDFE900031E0F8A3E0F9A3E059
:10104500FAA3E0FB12075A90004E1208C290004224
:10105500E0FFE4FCFDFE900052E0F8A3E0F9A3E018
:10106500FAA3E0FB12075A9000521208C290003D05
:10107500E0702D900056E0FCA3E0FDA3E0FEA3E0A8
:10108500FF90004AE0F8A3E0F9A3E0FAA3E0FBEF44
:101095002BFFEE3AFEED39FDEC38FC900056802B27
:1010A50090005AE0FCA3E0FDA3E0FEA3E0FF900062
:1010B5004AE0F8A3E0F9A3E0FAA3E0FBEF2BFFEE8B
:1010C5003AFEED39FDEC38FC90005A1208C290004A
:1010D5003EE0702E900056E0FCA3E0FDA3E0FEA3E9
:1010E500E0FF90004AE0F8A3E0F9A3E0FAA3E0FBF3
:1010F500EF2BFFEE3AFEED39FDEC38FC9000561271
:1011050008C290003FE0702B900056E0FCA3E0FD84
:10111500A3E0FEA3E0FF900052E0F8A3E0F9A3E00E
:10112500FAA3E0FBEF2BFFEE3AFEED39FDEC38FCC0
:10113500A3802B90005AE0FCA3E0FDA3E0FEA3E012
:10114500FF900052E0F8A3E0F9A3E0FAA3E0FBEF7B
:101155002BFFEE3AFEED39FDEC38FC90005A1208F3
:10116500C2900056E0F8A3E0F9A3E0FAA3E0FB90F3
:101175000043E0FEA3E0FFE4FCFDEB2FFFEA3EFEAB
:10118500ED39FDEC38FC9000561208C290005AE08B
:10119500FCA3E0FDA3E0FEA3E0FF900056E0F8A36A
:1011A500E0F9A3E0FAA3E0FBD312088540629000C2
:1011B5005AE0F8A3E0F9A3E0FAA3E0FB900056E0BB
:1011C500FCA3E0FDA3E0FEA3E09BFFEE9AFEED99F4
:1011D500FDEC98FC90004A1208C2E47F64FEFDFC19
:1011E50090004AE0F8A3E0F9A3E0FAA3E0FBC312FC
:1011F5000885501290004AA3A3E0FFA3E0900043A6
:10120500CFF0A3EFF022900043E4F0A37464F02242
:07121500E4900043F0A3F098
:01121C0022AF
:1000260002036EE86480F8E933E83360110460F097
:10003600ED33EC337009E8FCE9FDEAFEEBFF220440
:1000460060DED3EB9FEA9EE99DE8C2E78CF0C2F73B
:1000560095F0400CE8CCF8E9CDF9EACEFAEBCFFB07
:1000660012033985D0F05804700320D5B3E8047024
:10007600075002B2D502037892D5EC0460F7E4CCBF
:10008600C0E0C398F8603B94186008400DD0E0FBD0
:10009600020350E4FBFAC9FC8028E830E406E4C910
:1000A600FBE4CAFCE830E305E4C9CACBFCE8540724
:1000B6006010F8C3E913F9EA13FAEB13FBEC13FC2F
:1000C600D8F130F52FC3E49CFCEF9BFFEE9AFEEDD2
:1000D60099FDD0E0FBEF4E4D4C701222DB0302037C
:1000E60075EC2CFCEF33FFEE33FEED33FDED30E720
:1000F600EB020350EF2BFFEE3AFEED39FDD0E0FBAD
:1001060050130BBB0003020378ED13FDEE13FEEF55
:0801160013FFEC13FC0203507F
:10011E00EC4D6011E8497017ED33EC3304600DE4DB
:10012E00FCFFFEFD22E933E8330470F802036E1281
:10013E00033958046009E4CC248150062850090282
:10014E000378284003020375C0E0EB4A7044B9807F
:10015E0006D0E0FB020364EF4E701CBD8008EBFF7F
:10016E00EAFEE9FD80EBE98DF0A4FEE5F002020760
:10017E00E9CDF9EAFEEBFFEF89F0A4FCE5F0CE89BC
:10018E00F0A42EFFE435F0CD89F0A42DFEE435F079
:10019E008067EF4E7005BD80D780C3EF8BF0A4ACA7
:1001AE00F0EE8BF0A42CFCE435F0F8EF8AF0A42CE2
:1001BE00E5F038FCE433CB8DF0A42CFCE5F03BF8F5
:1001CE00EE8AF0A42CFCE5F038F8E433CF89F0A4E5
:1001DE002CFCE5F038CF3400CE89F0A42FFFE5F0EB
:1001EE003EFEE433C98DF0A42EFEE5F039CD8AF043
:1001FE00A42FFFE5F03EFEE43DFD33D0E0FB5007BB
:10020E000BBB000F020378EC2CFCEF33FFEE33FE3A
:06021E00ED33FD02035068
:10022400020378EC5D046005E85904700302036E70
:10023400120339580460F6EC4860F2EC7004FDFED9
:10024400FF22C860DB2481C85009C39860025006AD
:100254000203759850CAF582E9294B4A7005AB82AE
:1002640002036475F0007C1A7880C3EF9BEE9AED6C
:1002740099400DC3EF9BFFEE9AFEED99FDE842F025
:10028400DC23ACF0D0E0FFD0E0FED0E0FDAB822078
:10029400E7101BEB60BAEC2CFCEF33FFEE33FEED02
:1002A40033FD020350E803F830E705C0F075F000B1
:1002B400EF2FFFEE33FEED33FD40B830E7C280AAE6
:1002C40075F020800E75F010800575F0087D007EB5
:1002D400007F003392D530D503120877EC334010F9
:1002E400EF33FFEE33FEED33FDEC33FCD5F0ED22BE
:0E02F400E5F0247EA2D513CC92E7CDCEFF22FA
:10030200EDD2E7CD33EC3392D524814006E4FFFEF3
:10031200FDFC22FCE4CFCECDCC24E0501174FF8052
:10032200EDC3CC13CCCD13CDCE13CECF13CF0470EF
:07033200F030D5DE02087770
:10097200E5082404F582E43400F583E005082290BA
:100982000001300703900004E475F0011208FF0231
:1009920006782000E97F2ED2008018EF540F2490B1
:1009A200D43440D4FF30040BEF24BFB41A005003F8
:1009B2002461FFE50960021509050CE50C700205CA
:1009C2000B30070E900001E475F0011208FFEF02F0
:1009D20006BE02249D7403D2078003E4C207F50811
:1009E200900001120916E4F509F50BF50CE5096012
:1009F200077F201209B580F5750AFFC201C200C245
:100A020002C203C205C206C208120981FF700D307C
:100A120007057F001209C6AF0CAE0B22B4255FC2D8
:100A2200D5C204120981FF24D0B40A00501A75F00D
:100A32000A780930D50508B6FF0106C6A426F620B5
:100A4200D5047002D20380D924CFB41A00EF500427
:100A5200C2E5D204020CB8D20180C6D20080C0D254
:100A62000280BCD2D580BAD20580B47F201209B5EB
:100A72002002077401B5090040F1120972FF120940
:100A8200B50209EFD208D2068095120972FB12094B
:100A920072FA120972F94A4B700679B67A0D7BFF27
:100AA20020022EE509602A7E008E827583001206DE
:100AB2009160060EEE650A70F0C2D5EBC0E0EAC0A6
:100AC200E0E9C0E0EE120D19D0E0F9D0E0FAD0E092
:100AD200FB120678FF60AAEBC0E0EAC0E0E9C0E0E2
:100AE2001209B5D0E02401F9D0E03400FAD0E0FBDD
:100AF200E50A0460DCD50AD98087D20280A2120CF2
:100B0200FB60F7E50A700104120383A90A600DE590
:100B12000A600914F50A120DA3EF60F3EA30E70246
:100B2200F404C3995079EAF4250A0430E701E40495
:100B3200F50A800D120CFB60C1EA050A250A1203B0
:100B420083EA900030F030E701E4250A04D50A0474
:100B520020050114120D19E4C0E0120DA39000301B
:100B6200E0601320E70714F012099D802204F0D000
:100B7200E014C0E07F0012099DE50A6007120994A3
:100B8200150A800B300503120994D0E00209EFD058
:100B9200E00480C4120CFB609EE50A0412038390F9
:100BA2000030EAF0E50A2005026001042404120D77
:010BB2001929
:100BB30074FF04C0E0120DA312099DE50A2005028B
:100BC3006003120994D0E0B50AE87F451209A790A3
:100BD3000030E07F2B30E7047F2DF404C0E01209DE
:100BE300B5D0E075F00A84C0F012099ED0E0120976
:100BF3009E0209EF791080027908C206C2088008B4
:100C0300D2D5790A8004790AC2D5E50A047002F5BF
:100C13000AE4FAFDFEFF120972FC7B08200113129D
:100C23000972FD7B1030000A120972FE120972FF6D
:100C33007B20EC3382D592D55013C3E43000069F5A
:100C4300FFE49EFEE42001039DFDE49CFCE4CBF85D
:100C5300C201EC700CCFCECDCCE824F8F870F38051
:100C630017C3EF33FFEE33FEED33FDEC33FCEB3311
:100C7300FB994002FB0FD8E9EB300105F8D0E0C443
:100C830048B201C0E00AEC4D4E4F78207B0070C2A1
:100C9300EAB50A0040BCC0E0120D1BD0F0D0E02042
:100CA3000104C4C0E0C4B201C0F012099ED0F0D563
:100CB300F0EB0209EF12091F0A8C530BF7580A5D78
:100CC3004C0A59420BFB4F0C03440C03490A724371
:100CD3000C09550B36460B96450B00470DD6500AAB
:100CE300612D0A652E0A882B0A69230A86200DBF07
:100CF3002A0A214800000A80E50AB4FF03750A06A0
:100D0300120972FC120972FD120972FE120972FFB6
:100D13009000290203C0790AA2D5200314300509E3
:100D2300B910020404B9080104A2D5200602500137
:100D3300042002689202B509005034C0E07F2030DD
:100D430003197F30A20272067205500F120D72C290
:100D530002C206C205C2087F30800F300503E9C016
:100D6300E01209B5300503D0E0F9D0E0B509CC3085
:100D730005177F30B9100C1209B57F583004077F6F
:100D8300788003B908031209B53002057F2D0209E3
:100D9300B57F202008F87F2B2006F322920280CF14
:100DA3007F00B40700500B2429F582E43400F58357
:100DB300E0FF22286E756C6C2900D2011209723093
:100DC30001F8C201780930D50108F6020A212D5035
:100DD3004349581209722403B405004001E4900DFD
:100DE300D1931209A6743A1209A6D2037509040213
:020DF3000BF7FC
:101941003E9248DA3ECCCCCD3F2AAAAB4000000003
:101951003F8000003F9837F03FB504F33FD744FC88
:101961003E3172173EB172173F0515913EDE5BD9CC
:10197100D2008002C200EDD2E7F8CD33EC3304701F
:101981000BBD800592D502037802036E40FBD31490
:1019910060F2F5F07C3FEE7A00C39496C8948B40D8
:1019A100230AC89469C8941A401A0AC89468C8944A
:1019B1001F40110AC8945AC89425400805F07A00BE
:1019C100CDC2E7CDC0F09000131208C2EA2323C0B4
:1019D100E02451F582E43419F5831208B212002D86
:1019E100ECC0E0EDC0E0EEC0E0EFC0E01208969080
:1019F10000131208A6120029D0E0FBD0E0FAD0E0D3
:101A0100F9D0E0B2E7F81202279000131208C29051
:101A1100194174031204C59000131208A612011E85
:101A2100D0E0600F245DF582E43419F5831208B229
:101A310012002D9000131208C2D0E0C3947FFDE480
:101A41009400FC1202C97B187A727931783F120135
:101A51001E9000131208A612002D30000B7BD97ABC
:091A61005B79DE783E12011E22C1
:10033900E9D2E7C933E833F892D5EDD2E7CD33EC0A
:0703490033FC5002B2D52283
:10035000EC30E7100FBF000C0EBE00080DBD00040E
:100360000BEB6014A2D5EB13FCED92E7FD2274FFBA
:10037000FCFDFEFF22E480F8A2D574FF13FC7D8013
:03038000E480EF27
:10038300F920E73624F950037907E4F42402FBE566
:1003930082158270021583DBF6E024FB501BE960B3
:1003A30014E4F0E582158270021583E004F0B40AC8
:0D03B30008E4F0D9EE7401F00A22C2D52250
:1003C000ED33EC3392D5FA602AB4FF33EDC2E77B0C
:1003D000FF60067A0379E5E4227A0379EE20D504FA
:1003E0007A0379E9224E614E002B494E46002D4991
:1003F0004E4600E47A08F0A3DAFC7B00740722C0C2
:1004000083C082ECC0E0EDC0E0EEC0E0EFC0E0EA07
:1004100075F010A4CAABF075F04DA42BFBE435F0D9
:10042000FCEA2410FAEB34C5FBEC34D9FCEDC2E74E
:10043000FF75F056A4F42411C5F0F434C58FF0A470
:100440002AE5F03BE43CF020E714120542D0E0FF3F
:10045000D0E0FED0E0FDD0E0FC1202278014F404CE
:10046000120542D0E0FFD0E0FED0E0FDD0E0FC126B
:10047000011ED082D083E0FAEDD2E7CD33EC3324F5
:1004800082FBE4C3CF33CFCE33CECD33CD33DBF3DA
:100490007B0775F00A846004F0A31B0AE5F0F0A363
:1004A0008FF0740AA4FFACF08EF0740AA42CFEAC9A
:1004B000F050010C8DF0740AA42CFDE435F0F0A38B
:0504C000DBDE740722E1
:1004C500C0E0EFFBEEFAEDF9ECF812011ED0E0F515
:1004D500F0EFFBEEFAEDF9ECF8120896A3A3A3A34F
:1004E500E8C0E0E9C0E0EAC0E0EBC0E0C0F012011E
:1004F5001E1208B2A3A3A3A312002DD0F0D0E0FBD7
:0D050500D0E0FAD0E0F9D0E0F8D5F0D42233
:100512003F8000004120000042C80000447A0000F1
:10052200461C400047C35000497424004B18968073
:100532004CBEBC205A0E1BCA6753C21C749DC5AE6A
:10054200FB60065407601C2323120570EB543860CD
:100552000912055C12056B12011EECF8EDF9EEFAB8
:10056200EFCB22EB12056B80F1543803241C90056B
:1005720012FE93FC0EEE93FD0EEE930ECE93FF222F
:101E740002218EE493A3F8E493A34003F68001F2D5
:101E840008DFF48029E493A3F85407240CC8C3336F
:101E9400C4540F4420C8834004F456800146F6DF3E
:101EA400E4800B0102040810204080901EF4E47EBC
:101EB400019360BCA3FF543F30E509541FFEE49333
:101EC400A360010ECF54C025E060A840B8E493A3FA
:101ED400FAE493A3F8E493A3C8C582C8CAC583CA25
:101EE400F0A3C8C582C8CAC583CADFE9DEE780BEDD
:011F7600006A
:10058200E709F608DFFA8046E709F208DFFA803E5B
:1005920088828C83E709F0A3DFFA8032E309F60848
:1005A200DFFA8078E309F208DFFA807088828C83B0
:1005B200E309F0A3DFFA806489828A83E0A3F60864
:1005C200DFFA805889828A83E0A3F208DFFA804C3E
:1005D20080D280FA80C680D4806980F28033801015
:1005E20080A680EA809A80A880DA80E280CA80337E
:1005F20089828A83ECFAE493A3C8C582C8CCC583F6
:10060200CCF0A3C8C582C8CCC583CCDFE9DEE780C5
:100612000D89828A83E493A3F608DFF9ECFAA9F044
:10062200EDFB2289828A83ECFAE0A3C8C582C8CC9A
:10063200C583CCF0A3C8C582C8CCC583CCDFEADEB3
:10064200E880DB89828A83E493A3F208DFF980CC15
:1006520088F0EF60010E4E60C388F0ED2402B4040E
:100662000050B9F582EB2402B4040050AF232345B5
:0606720082239005D27303
:10067800BB010689828A83E0225002E722BBFE0280
:09068800E32289828A83E49322B3
:10069100BB010CE58229F582E5833AF583E022501E
:1006A10006E92582F8E622BBFE06E92582F8E22268
:0D06B100E58229F582E5833AF583E4932282
:1006BE00BB010689828A83F0225002F722BBFE011B
:0206CE00F32215
:1006D000BC000BBE0029EF8DF084FFADF022E4CC0E
:1006E000F875F008EF2FFFEE33FEEC33FCEE9DECD7
:1006F000984005FCEE9DFE0FD5F0E9E4CEFD22ED1D
:10070000F8F5F0EE8420D21CFEADF075F008EF2F66
:10071000FFED33FD4007985006D5F0F222C398FD57
:050720000FD5F0EA22F4
:10072500A3F8E0C5F025F0F0E58215827002158387
:06073500E0C838F0E822E4
:10073B00BB010A89828A83F0E5F0A3F0225006F709
:0F074B0009A7F01922BBFE06F3E5F009F3192206
:10075A00E88FF0A4CC8BF0A42CFCE98EF0A42CFC3E
:10076A008AF0EDA42CFCEA8EF0A4CDA8F08BF0A4BC
:10077A002DCC3825F0FDE98FF0A42CCD35F0FCEB1B
:10078A008EF0A4FEA9F0EB8FF0A4CFC5F02ECD39E0
:0F079A00FEE43CFCEAA42DCE35F0FDE43CFC224D
:1007A90075F008758200EF2FFFEE33FECD33CDCC07
:1007B90033CCC58233C5829BED9AEC99E58298408A
:1007C9000CF582EE9BFEED9AFDEC99FC0FD5F0D667
:1007D900E4CEFBE4CDFAE4CCF9A88222B800C1B991
:1007E9000059BA002DEC8BF084CFCECDFCE5F0CBCF
:1007F900F97818EF2FFFEE33FEED33FDEC33FCEB08
:1008090033FB10D703994004EB99FB0FD8E5E4F9C2
:10081900FA227818EF2FFFEE33FEED33FDEC33FCAF
:10082900C933C910D7059BE99A4007EC9BFCE99AA3
:10083900F90FD8E0E4C9FAE4CCFB2275F010EF2FE8
:10084900FFEE33FEED33FDCC33CCC833C810D707E8
:100859009BEC9AE899400AED9BFDEC9AFCE899F823
:0E0869000FD5F0DAE4CDFBE4CCFAE4C8F922B6
:0E087700C3E49FFFE49EFEE49DFDE49CFC2292
:10088500EB9FF5F0EA9E42F0E99D42F0E89C45F0C9
:010895002240
:10089600E493FC740193FD740293FE740393FF22A8
:0C08A600E0F8A3E0F9A3E0FAA3E0FB22D5
:1008B200E493F8740193F9740293FA740393FB229C
:0C08C200ECF0A3EDF0A3EEF0A3EFF022A9
:1008CE00A8828583F0D083D0821208E51208E51243
:1008DE0008E51208E5E473E493A3C583C5F0C58368
:1008EE00C8C582C8F0A3C583C5F0C583C8C582C874
:0108FE0022D7
:1008FF00F8E0FBA3A3E0F925F0F0E5821582700282
:07090F001583E0FA38F02225
:09091600EBF0A3EAF0A3E9F022E2
:10091F00D083D082F8E4937012740193700DA3A367
:10092F0093F8740193F5828883E47374029368607B
:06093F00EFA3A3A380DF7B
:10094500EC8EF0A4CCC5F0CCCDF8EFA4CEC5F02D3F
:10095500FDE43CFCE8A42EC8C5F03DFDE43CFCEFFD
:0D096500A4FFE5F028FEE43DFDE43CFC228B
:00000001FF
