:030000000221706A
:0C217000787FE4F6D8FD7581220221B7CB
:101D6600206B65795F7363616E0D0A00204B4559E0
:101D76005F325F505245530D0A0074696D65723AC1
:101D86002564200D0A0052203D20256620200D0ADC
:101D96000074656D702076616C3A2564200D0A002A
:101DA60066697273745F686561745F7374642068D2
:101DB6006561745F73746570203D20303B200D0AA9
:101DC6000066697273745F686561745F737464201A
:101DD600686561745F73746570203D20313B200D2A
:101DE6000A000D0A3D3D3D3D3D3D3D3D3D3D3D3DF0
:101DF6003D3D3D3D3D3D3D3D3D3D3D3D3D3D3D3D0D
:101E06003D3D3D3D3D3D0D0A00736B753A4B2564E6
:101E1600200D0A00736F66742076657273696F6EA3
:101E26003A2573200D0A00312E30302E30300067EF
:101E36006170202564200D0A0074696D6572202585
:101E460064200D0A003D3D3D3D3D3D3D3D3D3D3D52
:101E56003D3D3D3D3D3D3D3D3D3D3D3D3D3D3D3DAC
:0A1E66003D3D3D3D3D3D3D0D0A00B0
:0D2288004200A900004100AC004100AB0085
:101C5A00E4900000F09000ABE0700A12236290005A
:101C6A0000EFF08005E4900000F0900000E06401CD
:101C7A00704A7BFF7A1D79661209AE122794EF70BB
:101C8A000A7F0112279AE4FF0226C7E4FF12279A65
:101C9A001221FC90009CE0D394014016A3E0FF704F
:101CAA000590009B8009EFD39403400690008E7440
:101CBA0002F01224649000AC7401F022122794EF0F
:101CCA006003021D65900000E06402704F7BFF7A9A
:101CDA001D79721209AE90009CE0C394035005E08E
:101CEA0004F0800690009C7401F090009CE0D3946C
:101CFA00014016A3E0FF700590009B8009EFD39482
:101D0A0003400690008E7402F09000AC7401F01249
:101D1A00246490009CE0FF1227AC803C900000E015
:101D2A006403703790009DE0C394055005E004F009
:101D3A008005E490009DF07BFF7A1D798090009DDC
:101D4A00E0FF900047E4F0A3EFF01209AE90009D87
:0B1D5A00E0FF1227A61221FC122583D7
:011D6500225B
:0C163D00900006ECF0A3EDF0AB07AA064D
:10164900E4A3F0A3F0A3F0A37428F0A312089F0069
:1016590000000090001012089F00000000C3EB94E6
:1016690032EA94005003021700AE02AF03AD07AC93
:1016790006E412032AE4FBFA797A784412020F90FD
:10168900000C120893900006E0FCA3E0FDE41203AD
:101699002AE4FBFA797A784412020F9000101208B2
:1016A9009390000CE0F8A3E0F9A3E0FAA3E0FBA310
:1016B900E0FCA3E0FDA3E0FEA3E0FF12001190000F
:1016C9000CE0F8A3E0F9A3E0FAA3E0FB12020FE4AF
:1016D900FBFA795C784312010690000C120893E436
:1016E900FFFEFDFC90000CE0F8A3E0F9A3E0FAA3EB
:1016F900E0FB1202AC50057E007FFF227BFF7A1DC2
:10170900798C90000CE0FCA3E0FDA3E0FEA3E0FFD0
:101719009000471208931209AE7F147EAE7DC37CF8
:101729004290000CE0F8A3E0F9A3E0FAA3E0FB1271
:1017390002AC603F403D7F147EAE7DC37CC2900009
:101749000CE0F8A3E0F9A3E0FAA3E0FB1200157B93
:10175900CD7ACC79CC783E12020F1203639000083F
:10176900EEF0A3EFF090000BE02FF090000AE03EBE
:10177900F0803C90000CE0F8A3E0F9A3E0FAA3E0C4
:10178900FB7F147EAE7DC37C421200117BCD7ACCE7
:1017990079CC783E12020F120363900008EEF0A391
:1017A900EFF0C390000BE09FF090000AE09EF090EC
:1017B900009CE0B4030E90000BE024FBF090000ABB
:0C17C900E034FFF090000AE0FEA3E0FF17
:0117D50022F1
:101A2B00E4900000F0A3F0A3F0A3F0A3F0A3F090D8
:101A3B0000AAE004F070069000A9E004F09000A961
:101A4B00E0FEA3E0FFE4FCFD7B507AC3F9F8D31270
:101A5B00086C4003021B43E49000A9F0A3F07B0148
:101A6B0090000904F0A37400F0A37404F07A0079D9
:101A7B00021217D6900002E0FEA3E0FFA3E0FCA346
:101A8B00E0FD12163D900000EEF0A3EFF07BFF7A25
:101A9B001D7997900047EEF0A3EFF01209AED390AB
:101AAB000003E09432900002E094005003021B3AD2
:101ABB00122794EF706B9000ACE064017034F0D39C
:101ACB00900001E09432900000E094004011E4900B
:101ADB000092F0900091F07BFF7A1D79A680109018
:101AEB0000927401F0900091F07BFF7A1D79C71280
:101AFB0009AE900000E0FEA3E0FF7C007D0A120619
:101B0B00E490008AEEF0A3EFF0120DC690009DE07A
:101B1B00FF1227A690009CE0FF1227AC12269180A3
:101B2B0008E4FF1226C7122782E49000ABF02212C2
:081B3B0025A99000AB7401F034
:011B4300227F
:1020C7001227781225321226ACD2AF1227221227F6
:1020D70036121B441226347FC87E001226147F0254
:1020E70012275312250812278B7FB07E041226DF92
:1020F7001227827BFF7A1D79E81209AE7BFF7A1ED1
:10210700790F900047741FF0A374A8F01209AE90DE
:10211700004774FFF0A3741EF0A3742DF07BFF7AC1
:102127001E791A1209AE7BFF7A1E793590009CE062
:10213700FF900047E4F0A3EFF01209AE7BFF7A1E91
:10214700793F90009DE0FF900047E4F0A3EFF01285
:1021570009AE7BFF7A1E794B1209AE121A2B121C9D
:092167005A1226541227B280F22C
:0A277800758E5190FE917401F0225D
:10269100900091E0B401047F64800C900091E0709F
:0B26A10009900086A3E0FF1226C7226C
:1024640090009CE024FE601514601D146025240374
:10247400702B9000887401F0A374F4F0229000880B
:102484007402F0A37458F0229000887402F0A374CC
:0E249400BCF0229000887403F0A37452F02272
:1026540090008DE0B4011790009CE0D39401400EEB
:0F2664007401F0122464122583E490008DF0229B
:0E274500EF1F70011E144E6004000080F3228E
:1026DF007D407C03ED1D70011C144C70F7EF1F70D3
:0626EF00011E144E70EA0A
:0126F50022C2
:1026AC0090FF037401F090FF07F075B4807F507EAB
:0B26BC000012274590FE9B7449F0229D
:1026F600E4FFFE75B50743B440E5B430E5FB53B4DB
:05270600DFAEB7AFB625
:01270B0022AB
:10270C00E4FFFE75B50343B440E5B430E5FB53B4C8
:05271C00DFAEB7AFB60F
:012721002295
:0B17D600900006EBF0A3EAF0A3E9F09E
:1017E10090000C12089F00000000E4900010F0F03F
:1017F10090000CE0F8A3E0F9A3E0FAA3E0FB1227C4
:101801000CE4FCFDEB2FFFEA3EFEED39FDEC38FC6C
:1018110090000C120893900010E004F0E0C39405CE
:1018210040CE90000CE0FCA3E0FDA3E0FEA3E0FFAE
:10183100E47B05FAF9F81207CC90000C120893E446
:101841007F887E13FDFC90000CE0F8A3E0F9A3E093
:10185100FAA3E0FB120741E4FB7A10F9F81207CC76
:10186100900006E0FBA3E0FAA3E0F9EE8FF0120787
:10187100227F147E0012274590000C12089F000061
:101881000000E4900010F090000CE0F8A3E0F9A350
:10189100E0FAA3E0FB1226F6E4FCFDEB2FFFEA3EA3
:1018A100FEED39FDEC38FC90000C1208939000100D
:1018B100E004F0E0C3940540CE90000CE0FCA3E00E
:1018C100FDA3E0FEA3E0FFE47B05FAF9F81207CCE3
:1018D10090000C120893E47F887E13FDFC90000CAD
:1018E100E0F8A3E0F9A3E0FAA3E0FB120741E4FB6F
:1018F1007A10F9F81207CC900009E0FBA3E0FAA3F3
:08190100E0F9EE8FF00207226D
:101E70000D0A3D3D3D3D3D3D3D3D3D3D3D3D3D3DF5
:101E80003D3D3D3D3D3D3D3D3D3D3D3D3D3D3D3D82
:101E90003D3D3D3D3D3D3D3D3D3D0D0A00706F7773
:101EA0006572206F6E20666C617368206761703A9E
:101EB0002564202074696D65723A2564200D0A003E
:101EC0003D3D3D3D3D3D3D3D3D3D3D3D3D3D3D3D42
:101ED0003D3D3D3D3D3D3D3D3D3D3D3D3D3D3D3D32
:101EE0003D3D3D3D3D3D3D3D0D0A003D3D3D3D3DC2
:101EF0003D3D3D3D3D3D3D3D666972737420696EDB
:101F0000697420646174613D3D3D3D3D3D3D3D3D15
:101F10003D3D200D0A00307825303458202030789F
:101F2000253034582020307825303458202030781F
:101F300025303458200D0A00666C61736820676193
:101F4000703A2564202074696D65723A2564200D0D
:021F50000A0085
:0B22950044009E202005014100A20132
:062794009000A2E0FF220C
:06279A009000A2EFF02206
:1025F200D310AF01C3C0D075FDF075FC0F8EFA8FFA
:10260200F975FDD275FC2D75FDE175FC1ED0D092D9
:02261200AF22F5
:10255B00D310AF01C3C0D08FFB75FDF075FC0FAE70
:10256B0004AF058EFA8FF975FDB475FC4B75FDE163
:08257B0075FC1ED0D092AF22C6
:0C22F5007B017A00799C7D027F047E3C16
:10230100D310AF01C3C0D0900001EEF0A3EFF0A352
:0B231100EDF0A3EBF0A3EAF0A3E9F06D
:10231C00E4A3F0C2AFF0900003E0FF900007E0C32D
:10232C009F502C900004E0FBA3E475F00112070C05
:10233C00A9F0FA12068CFF900001E475F001120767
:10234C000CADF0FC12255B900007E004F080C7D2C6
:01235C00AFD1
:05235D00D0D092AF2278
:040003008F828E83D7
:03000700E493FF80
:01000A0022D3
:10242400900001EEF0A3EFF0A3EBF0A3EAF0A3E930
:10243400F0AF051DEF6028900001E475F00112076C
:102444000C85F082F583E493FF900003E0FBA3E4A2
:1024540075F00112070CA9F0FAEF1206D280D2220D
:1024A200E4FDFCED2400FFE4343CFE120003749EC4
:1024B2002DF582E43400F583E0B507030C80037F39
:1024C20000220DEDB404DCECC3940440037F01222E
:0224D2007F0089
:0124D40022E5
:101B4400E4900000F090FE927404F01224A2EF706E
:101B54000790000004F080597BFF7A1E7970120907
:101B6400AE7B017A00799C7D027F047E3C122424A2
:101B74007BFF7A1E799D90009CE0FF900047E4F083
:101B8400A3EFF090009DE0FF900049E4F0A3EFF094
:101B94001209AE7BFF7A1E79C01209AE90009CE058
:101BA400D394045006A3E094054006900000740109
:101BB400F0900000E06401707A7BFF7A1E79EB12EA
:101BC40009AE90009C7401F0A3F07F007E3C1225C6
:101BD400F2FB7A00799E7D041223011222F57B0127
:101BE4007A00799E7D047F007E3C1224247BFF7A58
:101BF4001F791690009EE0FF900047E4F0A3EFF0F9
:101C040090009FE0FF900049E4F0A3EFF09000A063
:101C1400E0FF90004BE4F0A3EFF09000A1E0FF9010
:101C2400004DE4F0A3EFF01209AE7BFF7A1E79C0F9
:101C34001209AE7BFF7A1F793890009CE0FF900078
:101C440047E4F0A3EFF090009DE0FF900049E4F03A
:061C5400A3EFF00209AE4F
:102583007F047E3C1225F27B017A00799E7D047FD5
:10259300001223011222F57B017A00799C7D027FD0
:0625A300047E3C0224242A
:1025320090FF1674C1F090FF157460F090FFA074C4
:1025420026F090FFA114F075CEFF75CD9875CC06DC
:09255200759E02759810D2AC22AE
:0C276000C2AC8F993099FDC299D2AC2216
:0627A000AE0712276022C3
:1025CF004C4F4E475F4B45590D0A0054454D5045F2
:1025DF00525F4B45590D0A0054494D455F4B4559C4
:0325EF000D0A00D2
:1022A0004100A3004200A400004100A6014200A793
:0222B00000002C
:0F27360090FF177460F090FF00F090FF01F02209
:10201000E4900002F0A28133900001F09000A3E070
:1020200014602614604E1470030220B3240360036E
:102030000220BC900001E060030220C19000A4F0E7
:10204000A3F09000A304F08078900001E0706B9002
:1020500000A5E004F070069000A4E004F0C3900036
:10206000A5E094039000A4E09400403E9000A37487
:1020700002F08036900001E0B40106A37404F08001
:102080003B9000A5E004F070069000A4E004F0C3CB
:102090009000A5E094C89000A4E09400400C90004B
:1020A000027405F09000A37403F07F0A7E001226EC
:1020B000DF800E900001E0B401078000E49000A3EF
:0620C000F0900002E0FFB9
:0120C60022F7
:10236200122010BF050C7BFF7A2579CF1209AE7FB0
:1023720001229000A6E0603030A70320802A7F323D
:102382007E001226DFE49000A6F020A70C7BFF7AE5
:102392002579DA1209AE7F02222080187BFF7A2586
:1023A20079E71209AE7F032230A709308006900038
:1023B200A67401F0308113D39000A8E0940190003C
:0C23C200A7E094004004E4F0A3F07F00CA
:0123CE0022EC
:0422B2004100B10036
:1026C7007E009000B1E0FD7C00120916E47B64FAFD
:0726D700F9F81207CC8FDFB8
:0126DE0022D9
:10261400900000EEF0A3EFF090FF1D74C0F090FF67
:102624009C7435F09000B174FFF0F5DE75DD9722EF
:0D27530075BD17EF75F02BA490FEA0F022CD
:0427B20043BD1022F1
:1023CF007365742074696D65207365636F6E643A0D
:1023DF0025640D0A0065786368616E67655F6865DF
:1023EF0061745F76616C7565200D0A0074696D65A7
:1023FF00207365636F6E643A2564200D0A00707256
:10240F006F74656374200D0A0074696D65206F66C3
:05241F0066200D0A001B
:1022B600420097000042009500004200990000414C
:1022C600008D0041008E0041009B004100920042BB
:0D22D600008F0000420093000041009100C5
:10267300900095EEF0A3EFF0E4A3F0A3F07BFF7AD4
:0E2683002379CF900047EEF0A3EFF00209AEEE
:1024D500900092E0B4012B90008FE475F001120694
:1024E500F6FED3E5F0940EEE940140167BFF7A23B9
:1024F50079E41209AEE4900092F090008FF0A3F019
:03250500A3F0221E
:1021FC00E4900097F0A3F090009DE0FF7008900031
:10220C0095F0A3F08052EFB4010C9000957407F098
:10221C00A304F0E48042EFB4020D900095740EF02C
:10222C00A37410F0E48031EFB4030D900095741C8E
:10223C00F0A37420F0E48020EFB4040D90009574AA
:10224C0038F0A37440F0E4800FEFB40517900095BC
:10225C007470F0A37480F0E4900099F0A3F09000F7
:10226C0093F0A3F07BFF7A2379FB900095E0FFA31A
:0C227C00E0900047CFF0A3EFF00209AEA5
:10272200E490FE80F0F589758CF5758A9643A802CF
:0427320043881022A6
:03000B00021909CE
:10190900C0E0C0F0C083C082C0D075D000C000C0A4
:1019190001C002C003C004C005C006C00712279455
:10192900EF6003021A0D900098E004F07006900031
:1019390097E004F0C3900098E094F4900097E09445
:10194900015003021A0D1224D590009BE0B4022D18
:1019590090009AE004F07006900099E004F0D390AA
:10196900009AE09420900099E0941C401090009B0C
:10197900E4F0900099F0A3F090008D04F0D390006A
:1019890096E09400900095E094004048A3E024FF7D
:10199900F0900095E034FFF090008EE06402705DF5
:1019A90090009AE004F07006900099E004F0D3905A
:1019B900009AE09420900099E0941C404090008D9A
:1019C9007401F0A3E4F0900099F0A3F07BFF7A246E
:1019D900790D802690009DE060237F0112279A905F
:1019E9000095E4F0A3F0900099F0A3F090008EF038
:1019F90090009BF07BFF7A2479181209AE9000972A
:101A0900E4F0A3F0121F52D007D006D005D004D0BD
:101A190003D002D001D000D0D0D082D083D0F0D072
:021A2900E032A9
:0D22E3004200AF00004100AE004100AD0020
:1025080043D1E890FF62E04406F090FF61E04408A0
:10251800F090FF60E04410F090FF6AE044F8F0C2E9
:0A25280097C296C295C294C2932296
:092782009000AF74CEF0A3F02228
:1025A9009000ADE0FF700F9000AF74CEF0A3F090F3
:1025B90000AD7401F022EFB4010B9000AF74FFF08D
:0525C900E49000ADF0FC
:0125CE0022EA
:0627A6009000B0EFF022EC
:0627AC009000AFEFF022E7
:09278B009000AF74CCF0A3F02221
:101F52009000AEE0B40800400302200A901F65F82A
:101F6200282873021F7D021F8D021F9E021FB102CD
:101F72001FC6021FD6021FE7021FFA53D1EF121427
:101F8200A11211EE9000AE7401F022C292D291120F
:101F920014A51211EE9000AE7402F022C292C29108
:101FA200D2A31214A71211EE9000AE7403F022C253
:101FB20092C291C2A3D2B41214A91211EE9000AE31
:101FC2007404F02243D1101214A11211EE9000AE4B
:101FD2007405F022C292D2911214A51211EE900051
:101FE200AE7406F022C292C291D2A31214A71211A9
:101FF200EE9000AE7407F022C292C291C2A3D2B494
:0E2002001214A91211EE8000E49000AEF0223C
:0511EE009000AFE0FFDE
:1011F300EF1208F0125A0112920212CA03122204C9
:10120300133A0513720613A90713E308141D0913F0
:10121300020A1496CC148BCE1454FF000014A09031
:1012230000AEE0FF6003B40404C295C294EF64010E
:101233006004EFB40504D295D294EF64026004EF26
:10124300B40604D295D294EF64036008EF64076098
:10125300030214A00214869000AEE0FF6003B404FE
:1012630004C295C294EF64016004EFB40504D295FF
:10127300C294EF64026004EFB40604D295C294EF03
:1012830064036008EF640760030214A00213DE9096
:1012930000AEE0FF6003B40404D295C294EF64018E
:1012A3006004EFB40504D295C294EF64026004EFC6
:1012B300B40604C295D294EF64036008EF64076038
:1012C300030214A00214189000AEE0FF6003B404FC
:1012D30004D295C294EF64016004EFB40504D2957F
:1012E300C294EF64026004EFB40604D295D294EF83
:1012F30064036008EF640760030214A002144F90B4
:1013030000AEE0FF6003B40404C295C294EF64012D
:101313006004EFB40504D295D294EF64026004EF45
:10132300B40604D295D294EF64036008EF640760B7
:10133300030214A00213DE9000AEE0FF6003B404C6
:1013430004D295C294EF64016004EFB40504C2951E
:10135300D294EF64026004EFB40604D295D294EF02
:1013630064036008EF640760030214A002144F9043
:1013730000AEE0FF6003B40404D295C294EF6401AD
:101383006004EFB40504C295D294EF64026004EFE5
:10139300B40604D295D294EF64036008EF64076047
:1013A300030214A0806F9000AEE0FF6003B4040456
:1013B300D295C294EF64016004EFB40504D295C2E0
:1013C30094EF64026004EFB40604D295C294EF6410
:1013D300036008EF640760030214A0C295C294225D
:1013E3009000AEE0FF6003B40404D295C294EF64AE
:1013F300016004EFB40504D295D294EF6402600453
:10140300EFB40604D295D294EF64036008EF640747
:1014130060030214A0D295D294229000AEE0FF6044
:1014230003B40404D295C294EF64016004EFB405DD
:1014330004D295D294EF64026004EFB40604D2950B
:10144300D294EF64036005EF64077051D295C294A0
:10145300229000AEE0FF6003B40404D295C294EF7F
:1014630064016004EFB40504C295D294EF64026092
:1014730004EFB40604C295D294EF64036005EF64ED
:1014830007701AC295D29422C297C296C295C2948B
:0E149300C29322D297D296D295D294D29322AF
:0D14A100D292C291C2A3C2B49000B0E0FF8D
:1014AE00EF14605D14700302154D14700302158B5A
:1014BE001470030215C51470030215FF2405600392
:1014CE0002163C9000AEE0FF6003B40406C297C261
:1014DE0096C293EF64016004EFB40506D297D296DC
:1014EE00D293EF64026004EFB40606C297D296C29E
:1014FE0093EF64036046EF6407600302163C021626
:10150E00369000AEE0FF6003B40406D297C296C2D6
:10151E0093EF64016004EFB40506D297D296D2938E
:10152E00EF64026004EFB40606C297C296C293EF50
:10153E0064036008EF6407600302163C02163690DF
:10154E0000AEE0FF6003B40406C297C296C293EFEA
:10155E0064016004EFB40506D297D296D293EF647D
:10156E00026004EFB40606D297C296C293EF6403EC
:10157E006008EF6407600302163C0216369000AE58
:10158E00E0FF6003B40406C297C296D293EF6401E3
:10159E006004EFB40506D297D296D293EF64026040
:1015AE0004EFB40606C297C296C293EF64036005B9
:1015BE00EF6407707980719000AEE0FF6003B404B1
:1015CE0006C297D296C293EF64016004EFB405068B
:1015DE00D297D296D293EF64026004EFB40606C29D
:1015EE0097C296C293EF64036005EF6407703F8065
:1015FE00379000AEE0FF6003B40406C297C296C2F5
:10160E0093EF64016004EFB40506D297D296D2939D
:10161E00EF64026004EFB40606C297C296D293EF4F
:0F162E0064036004EFB40706D297D296D29322DA
:0C276C0000000000000000000000000061
:0422F00041008C001D
:10263400E490008AF0A3F0900086F0A3F0A3F0A346
:10264400F090008504F0900084F090008304F02260
:100DC60078067C007D017BFF7A27796C7E007F0C9C
:100DD60012066690001212089F000000009000168E
:100DE60012089F0000000090008AE0FEA3E0FF903A
:100DF6000088E0FCA3E0FDD39FEC9E50030211E6C1
:100E0600ED9FFFEC9EFED3EF9464EE940040030248
:100E160011DCE4FCFD900006120893E4900081F0DA
:100E2600900078E0FCA3E0FDA3E0FEA3E0FFA312A0
:100E36000893900074E0FCA3E0FDA3E0FEA3E0FFAE
:100E4600A3120893900006E0FCA3E0FDA3E0FEA336
:100E5600E0FF900074120893900078E0FCA3E0FD98
:100E6600A3E0FEA3E0FF900074E0F8A3E0F9A3E09E
:100E7600FAA3E0FBD31208824033900078E0F8A38F
:100E8600E0F9A3E0FAA3E0FB900074E0FCA3E0FD28
:100E9600A3E0FEA3E09BFFEE9AFEED99FDEC98FC25
:100EA600900006120893E4900080F0803190007460
:100EB600E0F8A3E0F9A3E0FAA3E0FBA3E0FCA3E0DB
:100EC600FDA3E0FEA3E0C39BFFEE9AFEED99FDECC9
:100ED60098FC9000061208939000807401F0E47F5D
:100EE60002FEFDFC900078E0F8A3E0F9A3E0FAA387
:100EF600E0FB12074190000E12089390007CE0FC84
:100F0600A3E0FDA3E0FEA3E0FF900074E0F8A3E0F9
:100F1600F9A3E0FAA3E02FFFEA3EFEE93DFDE83C37
:100F2600FC90000EE0F8A3E0F9A3E0FAA3E0FBC30F
:100F3600120882504B90007CE0FCA3E0FDA3E0FE8B
:100F4600A3E0FF900074E0F8A3E0F9A3E0FAA3E0C1
:100F56002FFFEA3EFEE93DFDE83CFC90000EE0F87E
:100F6600A3E0F9A3E0FAC3EF9BFFEE9AFEED99FD2D
:100F7600EC98FC90000E120893E4900082F0805DDD
:100F860090000EE0FCA3E0FDA3E0FEA3E0FFC0049A
:100F9600C005C006C00790007CE0FCA3E0FDA3E00E
:100FA600FEA3E0FF900074E0F8A3E0F9A3E0FAA343
:100FB600E02FFBEA3EFAE93DF9E83CF8D007D00617
:100FC600D005D004C3EF9BFFEE9AFEED99FDEC9899
:100FD600FC90000E1208939000827401F09000833A
:100FE600E0FFE4FCFDFE900006E0F8A3E0F9A3E0D4
:100FF600FAA3E0FB120741900006120893900084C2
:10100600E0FFE4FCFDFE900074E0F8A3E0F9A3E045
:10101600FAA3E0FB12074190000A1208939000859C
:10102600E0FFE4FCFDFE90000EE0F8A3E0F9A3E08B
:10103600FAA3E0FB12074190000E1208939000807D
:10104600E0702D900012E0FCA3E0FDA3E0FEA3E01B
:10105600FF900006E0F8A3E0F9A3E0FAA3E0FBEFB7
:101066002BFFEE3AFEED39FDEC38FC900012802B9A
:10107600900016E0FCA3E0FDA3E0FEA3E0FF9000D5
:1010860006E0F8A3E0F9A3E0FAA3E0FBEF2BFFEEFE
:101096003AFEED39FDEC38FC9000161208939000EC
:1010A60081E0702E900012E0FCA3E0FDA3E0FEA319
:1010B600E0FF900006E0F8A3E0F9A3E0FAA3E0FB66
:1010C600EF2BFFEE3AFEED39FDEC38FC90001212E4
:1010D6000893900082E0702B900012E0FCA3E0FDE4
:1010E600A3E0FEA3E0FF90000EE0F8A3E0F9A3E082
:1010F600FAA3E0FBEF2BFFEE3AFEED39FDEC38FCF0
:10110600A3802B900016E0FCA3E0FDA3E0FEA3E085
:10111600FF90000EE0F8A3E0F9A3E0FAA3E0FBEFEE
:101126002BFFEE3AFEED39FDEC38FC900016120866
:1011360093900012E0F8A3E0F9A3E0FAA3E0FB9095
:101146000086E0FEA3E0FFE4FCFDEB2FFFEA3EFE97
:10115600ED39FDEC38FC900012120893900016E071
:10116600FCA3E0FDA3E0FEA3E0FF900012E0F8A3DD
:10117600E0F9A3E0FAA3E0FBD312088240629000F4
:1011860016E0F8A3E0F9A3E0FAA3E0FB900012E072
:10119600FCA3E0FDA3E0FEA3E09BFFEE9AFEED9923
:1011A600FDEC98FC900006120893E47F64FEFDFCBB
:1011B600900006E0F8A3E0F9A3E0FAA3E0FBC3126F
:1011C60008825012900006A3A3E0FFA3E0900086D9
:1011D600CFF0A3EFF022900086E4F0A37464F0222F
:0711E600E4900086F0A3F085
:0111ED0022DF
:10000E000203CFE86480F8E933E83360110460F04E
:10001E00ED33EC337009E8FCE9FDEAFEEBFF220458
:10002E0060DED3EB9FEA9EE99DE8C2E78CF0C2F753
:10003E0095F0400CE8CCF8E9CDF9EACEFAEBCFFB1F
:10004E0012039A85D0F05804700320D5B3E80470DB
:10005E00075002B2D50203D992D5EC0460F7E4CC76
:10006E00C0E0C398F8603B94186008400DD0E0FBE8
:10007E000203B1E4FBFAC9FC8028E830E406E4C9C7
:10008E00FBE4CAFCE830E305E4C9CACBFCE854073C
:10009E006010F8C3E913F9EA13FAEB13FBEC13FC47
:1000AE00D8F130F52FC3E49CFCEF9BFFEE9AFEEDEA
:1000BE0099FDD0E0FBEF4E4D4C701222DB03020394
:1000CE00D6EC2CFCEF33FFEE33FEED33FDED30E7D7
:1000DE00EB0203B1EF2BFFEE3AFEED39FDD0E0FB64
:1000EE0050130BBB00030203D9ED13FDEE13FEEF0D
:0800FE0013FFEC13FC0203B137
:10010600EC4D6011E8497017ED33EC3304600DE4F3
:10011600FCFFFEFD22E933E8330470F80203CF1238
:10012600039A58046009E4CC248150062850090239
:1001360003D92840030203D6C0E0EB4A7044B980D5
:1001460006D0E0FB0203C5EF4E701CBD8008EBFF36
:10015600EAFEE9FD80EBE98DF0A4FEE5F00201EF91
:10016600E9CDF9EAFEEBFFEF89F0A4FCE5F0CE89D4
:10017600F0A42EFFE435F0CD89F0A42DFEE435F091
:100186008067EF4E7005BD80D780C3EF8BF0A4ACBF
:10019600F0EE8BF0A42CFCE435F0F8EF8AF0A42CFA
:1001A600E5F038FCE433CB8DF0A42CFCE5F03BF80D
:1001B600EE8AF0A42CFCE5F038F8E433CF89F0A4FD
:1001C6002CFCE5F038CF3400CE89F0A42FFFE5F003
:1001D6003EFEE433C98DF0A42EFEE5F039CD8AF05B
:1001E600A42FFFE5F03EFEE43DFD33D0E0FB5007D3
:1001F6000BBB000F0203D9EC2CFCEF33FFEE33FEF2
:06020600ED33FD0203B11F
:10020C000203D9EC5D046005E8590470030203CFC6
:10021C0012039A580460F6EC4860F2EC7004FDFE90
:10022C00FF22C860DB2481C85009C39860025006C5
:10023C000203D69850CAF582E9294B4A7005AB8265
:10024C000203C575F0007C1A7880C3EF9BEE9AED23
:10025C0099400DC3EF9BFFEE9AFEED99FDE842F03D
:10026C00DC23ACF0D0E0FFD0E0FED0E0FDAB822090
:10027C00E7101BEB60BAEC2CFCEF33FFEE33FEED1A
:10028C0033FD0203B1E803F830E705C0F075F00068
:10029C00EF2FFFEE33FEED33FD40B830E7C280AAFE
:1002AC0074F8CC6480CCC86480C8F58204604FC3F9
:1002BC00EB9FF5F0EA9E42F0E99D42F0E89C45F098
:1002CC00603C501DE5825FFFE582D313CB5BCBF422
:1002DC002B5582FB50280ABA002409B9002008804B
:1002EC001DE5825BFBE582D313CF5FCFF4C3132FE5
:1002FC005582FF50090EBE00050DBD00010CC3EB6D
:10030C009FF5F0EA9E42F0E99D42F0E89C45F060D2
:09031C0007CC4820E701B3EC22F4
:1003250075F020800E75F010800575F0087D007E53
:10033500007F003392D530D50312085EEC334010B0
:10034500EF33FFEE33FEED33FDEC33FCD5F0ED225C
:0E035500E5F0247EA2D513CC92E7CDCEFF2298
:10036300EDD2E7CD33EC3392D524814006E4FFFE92
:10037300FDFC22FCE4CFCECDCC24E0501174FF80F1
:10038300EDC3CC13CCCD13CDCE13CECF13CF04708E
:07039300F030D5DE02085E28
:10094300E50D2447F582E43400F583E0050D22909C
:100953000044301003900047E475F0011208D00200
:10096300068C2009E97F2ED2098018EF540F2490BA
:10097300D43440D4FF300D0BEF24BFB41A0050031E
:100983002461FFE50E6002150E0511E511700205E5
:100993001030100E900044E475F0011208D0EF02FD
:1009A30006D20227A07403D2108003E4C210F50D0F
:1009B3009000441208E7E4F50EF510F511E50E601A
:1009C300077F2012098680F5750FFFC20AC209C28C
:1009D3000BC20CC20EC20FC211120952FF700D30AE
:1009E30010057F00120997AF11AE1022B4255FC224
:1009F300D5C20D120952FF24D0B40A00501A75F063
:100A03000A780E30D50508B6FF0106C6A426F620DF
:100A1300D5047002D20C80D924CFB41A00EF50044D
:100A2300C2E5D20D020C89D20A80C6D20980C0D297
:100A33000B80BCD2D580BAD20E80B47F2012098637
:100A4300200B077401B50E0040F1120943FF120990
:100A5300860209C0D211D20F8095120943FB1209F5
:100A630043FA120943F94A4B700679877A0D7BFFE3
:100A7300200B2EE50E602A7E008E827583001206FF
:100A8300A560060EEE650F70F0C2D5EBC0E0EAC0BC
:100A9300E0E9C0E0EE120CEAD0E0F9D0E0FAD0E0F1
:100AA300FB12068CFF60AAEBC0E0EAC0E0E9C0E0FD
:100AB300120986D0E02401F9D0E03400FAD0E0FB3B
:100AC300E50F0460DCD50FD98087D20B80A2120C0E
:100AD300CC60F7E50F7001041203E4A90F600DE584
:100AE3000F600914F50F120D74EF60F3EA30E7029B
:100AF300F404C3995079EAF4250F0430E701E404C0
:100B0300F50F800D120CCC60C1EA050F250F1203FF
:100B1300E4EA900073F030E701E4250F04D50F04F5
:100B2300200E0114120CEAE4C0E0120D749000735D
:100B3300E0601320E70714F012096E802204F0D05E
:100B4300E014C0E07F0012096EE50F60071209652B
:100B5300150F800B300E03120965D0E00209C0D0D7
:100B6300E00480C4120CCC609EE50F041203E490F1
:100B73000073EAF0E50F200E026001042404120C56
:010B8300EA87
:100B840074FF04C0E0120D7412096EE50F200E020A
:100B94006003120965D0E0B50FE87F45120978902B
:100BA4000073E07F2B30E7047F2DF404C0E01209CA
:100BB40086D0E075F00A84C0F012096FD0E0120903
:100BC4006F0209C0791080027908C20FC21180082F
:100BD400D2D5790A8004790AC2D5E50F047002F5EA
:100BE4000FE4FAFDFEFF120943FC7B08200A1312EE
:100BF4000943FD7B1030090A120943FE120943FF21
:100C04007B20EC3382D592D55013C3E43009069F80
:100C1400FFE49EFEE4200A039DFDE49CFCE4CBF883
:100C2400C20AEC700CCFCECDCCE824F8F870F38077
:100C340017C3EF33FFEE33FEED33FDEC33FCEB3340
:100C4400FB994002FB0FD8E9EB300A05F8D0E0C469
:100C540048B20AC0E00AEC4D4E4F78207B0070C2C7
:100C6400EAB50F0040BCC0E0120CECD0F0D0E0209C
:100C74000A04C4C0E0C4B20AC0F012096FD0F0D5AF
:100C8400F0EB0209C01208F00A5D530BC8580A2E93
:100C94004C0A2A420BCC4F0BD4440BD4490A43438D
:100CA4000BDA550B07460B67450AD1470DA7500AC7
:100CB400322D0A362E0A592B0A3A230A57200D9050
:100CC4002A09F24800000A51E50FB4FF03750F0624
:100CD400120943FC120943FD120943FE120943FFA2
:100CE40090006C020421790AA2D5200C14300E095C
:100CF400B910020404B9080104A2D5200F0250015E
:100D040004200B68920BB50E005034C0E07F2030F5
:100D14000C197F30A20B720F720E500F120D43C2CA
:100D24000BC20FC20EC2117F30800F300E03E9C018
:100D3400E0120986300E03D0E0F9D0E0B50ECC30D5
:100D44000E177F30B9100C1209867F58300D077FBB
:100D5400788003B90803120986300B057F2D020938
:100D6400867F202011F87F2B200FF322920B80CF57
:100D74007F00B40700500B246CF582E43400F58343
:100D8400E0FF22286E756C6C2900D20A12094330E8
:100D94000AF8C20A780E30D50108F60209F22D507D
:100DA4004349581209432403B405004001E4900D5B
:100DB400A293120977743A120977D20C750E0402C1
:020DC4000BC85A
:10039A00E9D2E7C933E833F892D5EDD2E7CD33ECA9
:0703AA0033FC5002B2D52222
:1003B100EC30E7100FBF000C0EBE00080DBD0004AD
:1003C1000BEB6014A2D5EB13FCED92E7FD2274FF59
:1003D100FCFDFEFF22E480F8A2D574FF13FC7D80B2
:0303E100E480EFC6
:1003E400F920E73624F950037907E4F42402FBE505
:1003F40082158270021583DBF6E024FB501BE96052
:1004040014E4F0E582158270021583E004F0B40A66
:0D04140008E4F0D9EE7401F00A22C2D522EE
:10042100ED33EC3392D5FA602AB4FF33EDC2E77BAA
:10043100FF60067A047946E4227A04794F20D504D4
:100441007A04794A224E614E002B494E46002D49CD
:100451004E4600E47A08F0A3DAFC7B00740722C060
:1004610083C082ECC0E0EDC0E0EEC0E0EFC0E0EAA6
:1004710075F010A4CAABF075F04DA42BFBE435F078
:10048100FCEA2410FAEB34C5FBEC34D9FCEDC2E7ED
:10049100FF75F056A4F42411C5F0F434C58FF0A40F
:1004A1002AE5F03BE43CF020E714120556D0E0FFCA
:1004B100D0E0FED0E0FDD0E0FC12020F8014F40485
:1004C100120556D0E0FFD0E0FED0E0FDD0E0FC12F6
:1004D1000106D082D083E0FAEDD2E7CD33EC3324AC
:1004E10082FBE4C3CF33CFCE33CECD33CD33DBF379
:1004F1007B0775F00A846004F0A31B0AE5F0F0A302
:100501008FF0740AA4FFACF08EF0740AA42CFEAC38
:10051100F050010C8DF0740AA42CFDE435F0F0A329
:05052100DBDE7407227F
:100526003F8000004120000042C80000447A0000DD
:10053600461C400047C35000497424004B1896805F
:100546004CBEBC205A0E1BCA6753C21C749DC5AE56
:10055600FB60065407601C2323120584EB543860A5
:100566000912057012057F120106ECF8EDF9EEFA94
:10057600EFCB22EB12057F80F1543803241C900543
:1005860026FE93FC0EEE93FD0EEE930ECE93FF2207
:10217C000220C7E493A3F8E493A34003F68001F292
:10218C0008DFF48029E493A3F85407240CC8C33364
:10219C00C4540F4420C8834004F456800146F6DF33
:1021AC00E4800B0102040810204080902288E47E19
:1021BC00019360BCA3FF543F30E509541FFEE49328
:1021CC00A360010ECF54C025E060A840B8E493A3EF
:1021DC00FAE493A3F8E493A3C8C582C8CAC583CA1A
:1021EC00F0A3C8C582C8CAC583CADFE9DEE780BED2
:0122F40000E9
:10059600E709F608DFFA8046E709F208DFFA803E47
:1005A60088828C83E709F0A3DFFA8032E309F60834
:1005B600DFFA8078E309F208DFFA807088828C839C
:1005C600E309F0A3DFFA806489828A83E0A3F60850
:1005D600DFFA805889828A83E0A3F208DFFA804C2A
:1005E60080D280FA80C680D4806980F28033801001
:1005F60080A680EA809A80A880DA80E280CA80336A
:1006060089828A83ECFAE493A3C8C582C8CCC583E1
:10061600CCF0A3C8C582C8CCC583CCDFE9DEE780B1
:100626000D89828A83E493A3F608DFF9ECFAA9F030
:10063600EDFB2289828A83ECFAE0A3C8C582C8CC86
:10064600C583CCF0A3C8C582C8CCC583CCDFEADE9F
:10065600E880DB89828A83E493A3F208DFF980CC01
:1006660088F0EF60010E4E60C388F0ED2402B404FA
:100676000050B9F582EB2402B4040050AF232345A1
:0606860082239005E673DB
:10068C00BB010689828A83E0225002E722BBFE026C
:09069C00E32289828A83E493229F
:1006A500BB010CE58229F582E5833AF583E022500A
:1006B50006E92582F8E622BBFE06E92582F8E22254
:0D06C500E58229F582E5833AF583E493226E
:1006D200BB010689828A83F0225002F722BBFE0107
:0206E200F32201
:1006E400EF8DF0A4A8F0CF8CF0A428CE8DF0A42E2A
:0206F400FE22E4
:1006F600C5F0F8A3E028F0C5F0F8E582158270028F
:060706001583E038F0222B
:10070C00A3F8E0C5F025F0F0E582158270021583A0
:06071C00E0C838F0E822FD
:10072200BB010A89828A83F0E5F0A3F0225006F722
:0F07320009A7F01922BBFE06F3E5F009F319221F
:10074100E88FF0A4CC8BF0A42CFCE98EF0A42CFC57
:100751008AF0EDA42CFCEA8EF0A4CDA8F08BF0A4D5
:100761002DCC3825F0FDE98FF0A42CCD35F0FCEB34
:100771008EF0A4FEA9F0EB8FF0A4CFC5F02ECD39F9
:0F078100FEE43CFCEAA42DCE35F0FDE43CFC2266
:1007900075F008758200EF2FFFEE33FECD33CDCC20
:1007A00033CCC58233C5829BED9AEC99E5829840A3
:1007B0000CF582EE9BFEED9AFDEC99FC0FD5F0D680
:1007C000E4CEFBE4CDFAE4CCF9A88222B800C1B9AA
:1007D0000059BA002DEC8BF084CFCECDFCE5F0CBE8
:1007E000F97818EF2FFFEE33FEED33FDEC33FCEB21
:1007F00033FB10D703994004EB99FB0FD8E5E4F9DC
:10080000FA227818EF2FFFEE33FEED33FDEC33FCC8
:10081000C933C910D7059BE99A4007EC9BFCE99ABC
:10082000F90FD8E0E4C9FAE4CCFB2275F010EF2F01
:10083000FFEE33FEED33FDCC33CCC833C810D70701
:100840009BEC9AE899400AED9BFDEC9AFCE899F83C
:0E0850000FD5F0DAE4CDFBE4CCFAE4C8F922CF
:0E085E00C3E49FFFE49EFEE49DFDE49CFC22AB
:10086C00EB9FF5F0EA9E42F0E99D42F0EC6480C803
:06087C0064809845F022A3
:10088200EB9FF5F0EA9E42F0E99D42F0E89C45F0CC
:010892002243
:0C089300ECF0A3EDF0A3EEF0A3EFF022D8
:10089F00A8828583F0D083D0821208B61208B612D0
:1008AF0008B61208B6E473E493A3C583C5F0C583F5
:1008BF00C8C582C8F0A3C583C5F0C583C8C582C8A3
:0108CF002206
:1008D000F8E0FBA3A3E0F925F0F0E58215827002B1
:0708E0001583E0FA38F02255
:0908E700EBF0A3EAF0A3E9F02212
:1008F000D083D082F8E4937012740193700DA3A397
:1009000093F8740193F5828883E4737402936860AA
:06091000EFA3A3A380DFAA
:10091600EC8EF0A4CCC5F0CCCDF8EFA4CEC5F02D6E
:10092600FDE43CFCE8A42EC8C5F03DFDE43CFCEF2C
:0D093600A4FFE5F028FEE43DFDE43CFC22BA
:00000001FF
